{
  "contractName": "RecordManagment",
  "abi": [
    {
      "constant": true,
      "inputs": [
        {
          "name": "",
          "type": "uint256"
        }
      ],
      "name": "diagnosisRecords",
      "outputs": [
        {
          "name": "doctorAddress",
          "type": "address"
        },
        {
          "name": "doctorId",
          "type": "string"
        },
        {
          "name": "patientId",
          "type": "string"
        },
        {
          "name": "Diagnosis",
          "type": "string"
        },
        {
          "name": "Details",
          "type": "string"
        }
      ],
      "payable": false,
      "stateMutability": "view",
      "type": "function"
    },
    {
      "anonymous": false,
      "inputs": [
        {
          "indexed": true,
          "name": "doctorAddress",
          "type": "address"
        },
        {
          "indexed": false,
          "name": "doctorId",
          "type": "string"
        },
        {
          "indexed": false,
          "name": "patientId",
          "type": "string"
        },
        {
          "indexed": false,
          "name": "Diagnosis",
          "type": "string"
        },
        {
          "indexed": false,
          "name": "Details",
          "type": "string"
        }
      ],
      "name": "DiagnosisRecordAdded",
      "type": "event"
    },
    {
      "constant": false,
      "inputs": [
        {
          "name": "doctorId",
          "type": "string"
        },
        {
          "name": "patientId",
          "type": "string"
        },
        {
          "name": "Diagnosis",
          "type": "string"
        },
        {
          "name": "Details",
          "type": "string"
        }
      ],
      "name": "addDiagnosisRecord",
      "outputs": [],
      "payable": true,
      "stateMutability": "payable",
      "type": "function"
    }
  ],
  "bytecode": "0x608060405234801561001057600080fd5b50610c23806100206000396000f3fe608060405260043610610046576000357c01000000000000000000000000000000000000000000000000000000009004806330dc60421461004b5780638a9e8dca146102cb575b600080fd5b6102c96004803603608081101561006157600080fd5b810190808035906020019064010000000081111561007e57600080fd5b82018360208201111561009057600080fd5b803590602001918460018302840111640100000000831117156100b257600080fd5b91908080601f016020809104026020016040519081016040528093929190818152602001838380828437600081840152601f19601f8201169050808301925050505050505091929192908035906020019064010000000081111561011557600080fd5b82018360208201111561012757600080fd5b8035906020019184600183028401116401000000008311171561014957600080fd5b91908080601f016020809104026020016040519081016040528093929190818152602001838380828437600081840152601f19601f820116905080830192505050505050509192919290803590602001906401000000008111156101ac57600080fd5b8201836020820111156101be57600080fd5b803590602001918460018302840111640100000000831117156101e057600080fd5b91908080601f016020809104026020016040519081016040528093929190818152602001838380828437600081840152601f19601f8201169050808301925050505050505091929192908035906020019064010000000081111561024357600080fd5b82018360208201111561025557600080fd5b8035906020019184600183028401116401000000008311171561027757600080fd5b91908080601f016020809104026020016040519081016040528093929190818152602001838380828437600081840152601f19601f8201169050808301925050505050505091929192905050506104f6565b005b3480156102d757600080fd5b50610304600480360360208110156102ee57600080fd5b8101908080359060200190929190505050610847565b604051808673ffffffffffffffffffffffffffffffffffffffff1673ffffffffffffffffffffffffffffffffffffffff16815260200180602001806020018060200180602001858103855289818151815260200191508051906020019080838360005b83811015610382578082015181840152602081019050610367565b50505050905090810190601f1680156103af5780820380516001836020036101000a031916815260200191505b50858103845288818151815260200191508051906020019080838360005b838110156103e85780820151818401526020810190506103cd565b50505050905090810190601f1680156104155780820380516001836020036101000a031916815260200191505b50858103835287818151815260200191508051906020019080838360005b8381101561044e578082015181840152602081019050610433565b50505050905090810190601f16801561047b5780820380516001836020036101000a031916815260200191505b50858103825286818151815260200191508051906020019080838360005b838110156104b4578082015181840152602081019050610499565b50505050905090810190601f1680156104e15780820380516001836020036101000a031916815260200191505b50995050505050505050505060405180910390f35b6104fe610b0c565b33816000019073ffffffffffffffffffffffffffffffffffffffff16908173ffffffffffffffffffffffffffffffffffffffff16815250508481602001819052508381604001819052508281606001819052508181608001819052506000819080600181540180825580915050906001820390600052602060002090600502016000909192909190915060008201518160000160006101000a81548173ffffffffffffffffffffffffffffffffffffffff021916908373ffffffffffffffffffffffffffffffffffffffff16021790555060208201518160010190805190602001906105eb929190610b52565b506040820151816002019080519060200190610608929190610b52565b506060820151816003019080519060200190610625929190610b52565b506080820151816004019080519060200190610642929190610b52565b505050503373ffffffffffffffffffffffffffffffffffffffff167f645b04320c0b887d0799a8cea99ce7a1874a58459bf6e50a1b4a798bae918f47868686866040518080602001806020018060200180602001858103855289818151815260200191508051906020019080838360005b838110156106ce5780820151818401526020810190506106b3565b50505050905090810190601f1680156106fb5780820380516001836020036101000a031916815260200191505b50858103845288818151815260200191508051906020019080838360005b83811015610734578082015181840152602081019050610719565b50505050905090810190601f1680156107615780820380516001836020036101000a031916815260200191505b50858103835287818151815260200191508051906020019080838360005b8381101561079a57808201518184015260208101905061077f565b50505050905090810190601f1680156107c75780820380516001836020036101000a031916815260200191505b50858103825286818151815260200191508051906020019080838360005b838110156108005780820151818401526020810190506107e5565b50505050905090810190601f16801561082d5780820380516001836020036101000a031916815260200191505b509850505050505050505060405180910390a25050505050565b60008181548110151561085657fe5b90600052602060002090600502016000915090508060000160009054906101000a900473ffffffffffffffffffffffffffffffffffffffff1690806001018054600181600116156101000203166002900480601f0160208091040260200160405190810160405280929190818152602001828054600181600116156101000203166002900480156109285780601f106108fd57610100808354040283529160200191610928565b820191906000526020600020905b81548152906001019060200180831161090b57829003601f168201915b505050505090806002018054600181600116156101000203166002900480601f0160208091040260200160405190810160405280929190818152602001828054600181600116156101000203166002900480156109c65780601f1061099b576101008083540402835291602001916109c6565b820191906000526020600020905b8154815290600101906020018083116109a957829003601f168201915b505050505090806003018054600181600116156101000203166002900480601f016020809104026020016040519081016040528092919081815260200182805460018160011615610100020316600290048015610a645780601f10610a3957610100808354040283529160200191610a64565b820191906000526020600020905b815481529060010190602001808311610a4757829003601f168201915b505050505090806004018054600181600116156101000203166002900480601f016020809104026020016040519081016040528092919081815260200182805460018160011615610100020316600290048015610b025780601f10610ad757610100808354040283529160200191610b02565b820191906000526020600020905b815481529060010190602001808311610ae557829003601f168201915b5050505050905085565b60a060405190810160405280600073ffffffffffffffffffffffffffffffffffffffff168152602001606081526020016060815260200160608152602001606081525090565b828054600181600116156101000203166002900490600052602060002090601f016020900481019282601f10610b9357805160ff1916838001178555610bc1565b82800160010185558215610bc1579182015b82811115610bc0578251825591602001919060010190610ba5565b5b509050610bce9190610bd2565b5090565b610bf491905b80821115610bf0576000816000905550600101610bd8565b5090565b9056fea165627a7a72305820d40e439f2b18fdf9cc50f3d50a563e0d96d1efb80f161d06e63f4ace5389c5d30029",
  "source": "// SPDX-License-Identifier: MIT\r\npragma solidity >=0.4.22 <0.9.0;\r\n\r\n\r\ncontract RecordManagment {\r\n    struct DiagnosisRecord {\r\n        address doctorAddress;\r\n        string doctorId;\r\n        string patientId;\r\n        string Diagnosis;\r\n        string Details;\r\n\r\n    }\r\n\r\n    DiagnosisRecord[] public diagnosisRecords;\r\n\r\n    event DiagnosisRecordAdded(address indexed doctorAddress,string doctorId , string patientId, string Diagnosis, string Details);\r\n\r\n    function addDiagnosisRecord(string memory doctorId, string memory patientId, string memory Diagnosis, string memory Details) public payable {\r\n        DiagnosisRecord memory newRecord;\r\n        newRecord.doctorAddress=msg.sender;\r\n        newRecord.doctorId = doctorId;\r\n        newRecord.patientId = patientId;\r\n        newRecord.Diagnosis = Diagnosis;\r\n        newRecord.Details = Details;\r\n\r\n\r\n\r\n\r\n        diagnosisRecords.push(newRecord);\r\n        emit DiagnosisRecordAdded(msg.sender, doctorId, patientId, Diagnosis, Details);\r\n    }\r\n}",
  "sourcePath": "C:\\Users\\USER\\Downloads\\p2m_-main (1)\\p2m_-main\\blockchain\\contracts\\RecordManagment.sol",
  "compiler": {
    "name": "solc",
    "version": "0.5.1+commit.c8a2cb62.Emscripten.clang"
  },
  "schemaVersion": "3.4.16",
  "updatedAt": "2024-05-31T08:46:34.676Z",
  "networkType": "ethereum",
  "devdoc": {
    "methods": {}
  },
  "userdoc": {
    "methods": {}
  }
}