{
  "contractName": "AccessManagement",
  "abi": [
    {
      "constant": true,
      "inputs": [
        {
          "name": "",
          "type": "uint256"
        }
      ],
      "name": "revokedAccessRecords",
      "outputs": [
        {
          "name": "patientAddress",
          "type": "address"
        },
        {
          "name": "patientName",
          "type": "string"
        },
        {
          "name": "doctorId",
          "type": "string"
        }
      ],
      "payable": false,
      "stateMutability": "view",
      "type": "function"
    },
    {
      "constant": true,
      "inputs": [
        {
          "name": "",
          "type": "uint256"
        }
      ],
      "name": "accessRecords",
      "outputs": [
        {
          "name": "patientName",
          "type": "string"
        },
        {
          "name": "doctorId",
          "type": "string"
        },
        {
          "name": "patientAddress",
          "type": "address"
        }
      ],
      "payable": false,
      "stateMutability": "view",
      "type": "function"
    },
    {
      "anonymous": false,
      "inputs": [
        {
          "indexed": false,
          "name": "patientAddress",
          "type": "address"
        },
        {
          "indexed": false,
          "name": "patientName",
          "type": "string"
        },
        {
          "indexed": false,
          "name": "doctorId",
          "type": "string"
        }
      ],
      "name": "AccessGranted",
      "type": "event"
    },
    {
      "anonymous": false,
      "inputs": [
        {
          "indexed": true,
          "name": "patientAddress",
          "type": "address"
        },
        {
          "indexed": false,
          "name": "patientName",
          "type": "string"
        },
        {
          "indexed": false,
          "name": "doctorId",
          "type": "string"
        }
      ],
      "name": "AccessRevoked",
      "type": "event"
    },
    {
      "constant": false,
      "inputs": [
        {
          "name": "patientName",
          "type": "string"
        },
        {
          "name": "doctorId",
          "type": "string"
        }
      ],
      "name": "grantAccess",
      "outputs": [],
      "payable": true,
      "stateMutability": "payable",
      "type": "function"
    },
    {
      "constant": false,
      "inputs": [
        {
          "name": "patientName",
          "type": "string"
        },
        {
          "name": "doctorId",
          "type": "string"
        }
      ],
      "name": "revokeAccess",
      "outputs": [],
      "payable": true,
      "stateMutability": "payable",
      "type": "function"
    }
  ],
  "bytecode": "0x608060405234801561001057600080fd5b50610e6d806100206000396000f3fe60806040526004361061005c576000357c010000000000000000000000000000000000000000000000000000000090048063241f314414610061578063817f8ca5146101b3578063af6d68e814610305578063b55fdd5c14610458575b600080fd5b6101b16004803603604081101561007757600080fd5b810190808035906020019064010000000081111561009457600080fd5b8201836020820111156100a657600080fd5b803590602001918460018302840111640100000000831117156100c857600080fd5b91908080601f016020809104026020016040519081016040528093929190818152602001838380828437600081840152601f19601f8201169050808301925050505050505091929192908035906020019064010000000081111561012b57600080fd5b82018360208201111561013d57600080fd5b8035906020019184600183028401116401000000008311171561015f57600080fd5b91908080601f016020809104026020016040519081016040528093929190818152602001838380828437600081840152601f19601f8201169050808301925050505050505091929192905050506105ab565b005b610303600480360360408110156101c957600080fd5b81019080803590602001906401000000008111156101e657600080fd5b8201836020820111156101f857600080fd5b8035906020019184600183028401116401000000008311171561021a57600080fd5b91908080601f016020809104026020016040519081016040528093929190818152602001838380828437600081840152601f19601f8201169050808301925050505050505091929192908035906020019064010000000081111561027d57600080fd5b82018360208201111561028f57600080fd5b803590602001918460018302840111640100000000831117156102b157600080fd5b91908080601f016020809104026020016040519081016040528093929190818152602001838380828437600081840152601f19601f8201169050808301925050505050505091929192905050506107d4565b005b34801561031157600080fd5b5061033e6004803603602081101561032857600080fd5b8101908080359060200190929190505050610a1a565b604051808473ffffffffffffffffffffffffffffffffffffffff1673ffffffffffffffffffffffffffffffffffffffff1681526020018060200180602001838103835285818151815260200191508051906020019080838360005b838110156103b4578082015181840152602081019050610399565b50505050905090810190601f1680156103e15780820380516001836020036101000a031916815260200191505b50838103825284818151815260200191508051906020019080838360005b8381101561041a5780820151818401526020810190506103ff565b50505050905090810190601f1680156104475780820380516001836020036101000a031916815260200191505b509550505050505060405180910390f35b34801561046457600080fd5b506104916004803603602081101561047b57600080fd5b8101908080359060200190929190505050610ba3565b6040518080602001806020018473ffffffffffffffffffffffffffffffffffffffff1673ffffffffffffffffffffffffffffffffffffffff168152602001838103835286818151815260200191508051906020019080838360005b838110156105075780820151818401526020810190506104ec565b50505050905090810190601f1680156105345780820380516001836020036101000a031916815260200191505b50838103825285818151815260200191508051906020019080838360005b8381101561056d578082015181840152602081019050610552565b50505050905090810190601f16801561059a5780820380516001836020036101000a031916815260200191505b509550505050505060405180910390f35b6105b3610d2c565b33816000019073ffffffffffffffffffffffffffffffffffffffff16908173ffffffffffffffffffffffffffffffffffffffff16815250508281602001819052508181604001819052506000819080600181540180825580915050906001820390600052602060002090600302016000909192909190915060008201518160000160006101000a81548173ffffffffffffffffffffffffffffffffffffffff021916908373ffffffffffffffffffffffffffffffffffffffff160217905550602082015181600101908051906020019061068e929190610d64565b5060408201518160020190805190602001906106ab929190610d64565b505050503373ffffffffffffffffffffffffffffffffffffffff167f66bb8a83f280238a5af1f12531deaceb481bf4bb2432051f46ec365a66d4851a8484604051808060200180602001838103835285818151815260200191508051906020019080838360005b8381101561072d578082015181840152602081019050610712565b50505050905090810190601f16801561075a5780820380516001836020036101000a031916815260200191505b50838103825284818151815260200191508051906020019080838360005b83811015610793578082015181840152602081019050610778565b50505050905090810190601f1680156107c05780820380516001836020036101000a031916815260200191505b5094505050505060405180910390a2505050565b6107dc610de4565b33816040019073ffffffffffffffffffffffffffffffffffffffff16908173ffffffffffffffffffffffffffffffffffffffff1681525050828160000181905250818160200181905250600181908060018154018082558091505090600182039060005260206000209060030201600090919290919091506000820151816000019080519060200190610870929190610d64565b50602082015181600101908051906020019061088d929190610d64565b5060408201518160020160006101000a81548173ffffffffffffffffffffffffffffffffffffffff021916908373ffffffffffffffffffffffffffffffffffffffff1602179055505050507f83d90dfabb9dd5929f37bedd596ec8b76fec40556dcf87a93c891c43ecbc35a2338484604051808473ffffffffffffffffffffffffffffffffffffffff1673ffffffffffffffffffffffffffffffffffffffff1681526020018060200180602001838103835285818151815260200191508051906020019080838360005b83811015610972578082015181840152602081019050610957565b50505050905090810190601f16801561099f5780820380516001836020036101000a031916815260200191505b50838103825284818151815260200191508051906020019080838360005b838110156109d85780820151818401526020810190506109bd565b50505050905090810190601f168015610a055780820380516001836020036101000a031916815260200191505b509550505050505060405180910390a1505050565b600081815481101515610a2957fe5b90600052602060002090600302016000915090508060000160009054906101000a900473ffffffffffffffffffffffffffffffffffffffff1690806001018054600181600116156101000203166002900480601f016020809104026020016040519081016040528092919081815260200182805460018160011615610100020316600290048015610afb5780601f10610ad057610100808354040283529160200191610afb565b820191906000526020600020905b815481529060010190602001808311610ade57829003601f168201915b505050505090806002018054600181600116156101000203166002900480601f016020809104026020016040519081016040528092919081815260200182805460018160011615610100020316600290048015610b995780601f10610b6e57610100808354040283529160200191610b99565b820191906000526020600020905b815481529060010190602001808311610b7c57829003601f168201915b5050505050905083565b600181815481101515610bb257fe5b9060005260206000209060030201600091509050806000018054600181600116156101000203166002900480601f016020809104026020016040519081016040528092919081815260200182805460018160011615610100020316600290048015610c5e5780601f10610c3357610100808354040283529160200191610c5e565b820191906000526020600020905b815481529060010190602001808311610c4157829003601f168201915b505050505090806001018054600181600116156101000203166002900480601f016020809104026020016040519081016040528092919081815260200182805460018160011615610100020316600290048015610cfc5780601f10610cd157610100808354040283529160200191610cfc565b820191906000526020600020905b815481529060010190602001808311610cdf57829003601f168201915b5050505050908060020160009054906101000a900473ffffffffffffffffffffffffffffffffffffffff16905083565b606060405190810160405280600073ffffffffffffffffffffffffffffffffffffffff16815260200160608152602001606081525090565b828054600181600116156101000203166002900490600052602060002090601f016020900481019282601f10610da557805160ff1916838001178555610dd3565b82800160010185558215610dd3579182015b82811115610dd2578251825591602001919060010190610db7565b5b509050610de09190610e1c565b5090565b6060604051908101604052806060815260200160608152602001600073ffffffffffffffffffffffffffffffffffffffff1681525090565b610e3e91905b80821115610e3a576000816000905550600101610e22565b5090565b9056fea165627a7a723058204c3d515c0b80534a16137e4b190e49d616ef21a093461ff647483badbdff9f400029",
  "source": "// SPDX-License-Identifier: MIT\r\npragma solidity >=0.4.22 <0.9.0;\r\n\r\ncontract AccessManagement {\r\n    // Struct to represent access record\r\n    struct AccessRecord {\r\n        string patientName;\r\n        string doctorId;\r\n        address patientAddress;\r\n            }\r\n\r\n             // Struct to store details of revoked access\r\n   // Define a struct to store access revocation records\r\nstruct RevokedAccess {\r\n    address patientAddress;\r\n    string patientName;\r\n    string doctorId;\r\n}\r\n\r\n// Array to store revoked access records\r\nRevokedAccess[] public revokedAccessRecords;\r\n\r\n    // Array to store access records\r\n    AccessRecord[] public accessRecords;\r\n\r\n    // Event emitted when access is granted\r\n    event AccessGranted(address patientAddress, string patientName,string doctorId );\r\n    // Event emitted when access is revoked\r\nevent AccessRevoked(address indexed patientAddress, string patientName, string doctorId);\r\n\r\n\r\n\r\n    // Function to grant access to a doctor\r\n    function grantAccess(string memory patientName, string memory doctorId ) public payable {\r\n        // Create a new access record instance\r\n        AccessRecord memory newAccessRecord;\r\n        newAccessRecord.patientAddress = msg.sender;\r\n        newAccessRecord.patientName = patientName;\r\n        newAccessRecord.doctorId = doctorId;\r\n       \r\n\r\n        // Add the new access record to the array\r\n        accessRecords.push(newAccessRecord);\r\n\r\n        // Emit event\r\n        emit AccessGranted(msg.sender, patientName, doctorId);\r\n    }\r\n\r\n     // Function to revoke access from a doctor\r\n    function revokeAccess(string memory patientName, string memory doctorId) public payable {\r\n        // Emit an event to indicate access revocation\r\n\r\n        RevokedAccess memory newRevokedAccess;\r\n        newRevokedAccess.patientAddress=msg.sender;\r\n        newRevokedAccess.patientName = patientName;\r\n        newRevokedAccess.doctorId = doctorId;\r\n\r\n        revokedAccessRecords.push(newRevokedAccess);\r\n        emit AccessRevoked(msg.sender,patientName, doctorId);\r\n        \r\n        // Store the access revocation record in the array\r\n    }\r\n}\r\n\r\n",
  "sourcePath": "C:\\Users\\USER\\Downloads\\p2m_-main (1)\\p2m_-main\\contracts\\AccessManagment.sol",
  "compiler": {
    "name": "solc",
    "version": "0.5.1+commit.c8a2cb62.Emscripten.clang"
  },
  "schemaVersion": "3.4.16",
  "updatedAt": "2024-04-27T15:59:56.826Z",
  "networkType": "ethereum",
  "devdoc": {
    "methods": {}
  },
  "userdoc": {
    "methods": {}
  }
}