{
  "contractName": "Registry",
  "abi": [
    {
      "constant": true,
      "inputs": [
        {
          "name": "",
          "type": "uint256"
        }
      ],
      "name": "signInEvents",
      "outputs": [
        {
          "name": "userAddress",
          "type": "address"
        },
        {
          "name": "name",
          "type": "string"
        },
        {
          "name": "email",
          "type": "string"
        },
        {
          "name": "role",
          "type": "string"
        }
      ],
      "payable": false,
      "stateMutability": "view",
      "type": "function"
    },
    {
      "constant": true,
      "inputs": [
        {
          "name": "",
          "type": "uint256"
        }
      ],
      "name": "doctors",
      "outputs": [
        {
          "name": "doctorAddress",
          "type": "address"
        },
        {
          "name": "name",
          "type": "string"
        },
        {
          "name": "email",
          "type": "string"
        },
        {
          "name": "age",
          "type": "string"
        },
        {
          "name": "gender",
          "type": "string"
        },
        {
          "name": "specialization",
          "type": "string"
        }
      ],
      "payable": false,
      "stateMutability": "view",
      "type": "function"
    },
    {
      "constant": true,
      "inputs": [
        {
          "name": "",
          "type": "uint256"
        }
      ],
      "name": "patients",
      "outputs": [
        {
          "name": "patientAddress",
          "type": "address"
        },
        {
          "name": "name",
          "type": "string"
        },
        {
          "name": "email",
          "type": "string"
        },
        {
          "name": "age",
          "type": "string"
        },
        {
          "name": "gender",
          "type": "string"
        },
        {
          "name": "role",
          "type": "string"
        },
        {
          "name": "cnss",
          "type": "string"
        }
      ],
      "payable": false,
      "stateMutability": "view",
      "type": "function"
    },
    {
      "anonymous": false,
      "inputs": [
        {
          "indexed": true,
          "name": "patientAddress",
          "type": "address"
        },
        {
          "indexed": false,
          "name": "name",
          "type": "string"
        },
        {
          "indexed": false,
          "name": "email",
          "type": "string"
        },
        {
          "indexed": false,
          "name": "age",
          "type": "string"
        },
        {
          "indexed": false,
          "name": "gender",
          "type": "string"
        },
        {
          "indexed": false,
          "name": "role",
          "type": "string"
        },
        {
          "indexed": false,
          "name": "cnss",
          "type": "string"
        }
      ],
      "name": "PatientSignedUp",
      "type": "event"
    },
    {
      "anonymous": false,
      "inputs": [
        {
          "indexed": true,
          "name": "doctorAddress",
          "type": "address"
        },
        {
          "indexed": false,
          "name": "name",
          "type": "string"
        },
        {
          "indexed": false,
          "name": "email",
          "type": "string"
        },
        {
          "indexed": false,
          "name": "age",
          "type": "string"
        },
        {
          "indexed": false,
          "name": "gender",
          "type": "string"
        },
        {
          "indexed": false,
          "name": "specialization",
          "type": "string"
        }
      ],
      "name": "DoctorSignedUp",
      "type": "event"
    },
    {
      "anonymous": false,
      "inputs": [
        {
          "indexed": true,
          "name": "userAddress",
          "type": "address"
        },
        {
          "indexed": false,
          "name": "name",
          "type": "string"
        },
        {
          "indexed": false,
          "name": "email",
          "type": "string"
        },
        {
          "indexed": false,
          "name": "role",
          "type": "string"
        }
      ],
      "name": "UserSignedIn",
      "type": "event"
    },
    {
      "constant": false,
      "inputs": [
        {
          "name": "name",
          "type": "string"
        },
        {
          "name": "email",
          "type": "string"
        },
        {
          "name": "age",
          "type": "string"
        },
        {
          "name": "gender",
          "type": "string"
        },
        {
          "name": "role",
          "type": "string"
        },
        {
          "name": "cnss",
          "type": "string"
        }
      ],
      "name": "executePatientSignup",
      "outputs": [],
      "payable": true,
      "stateMutability": "payable",
      "type": "function"
    },
    {
      "constant": false,
      "inputs": [
        {
          "name": "name",
          "type": "string"
        },
        {
          "name": "email",
          "type": "string"
        },
        {
          "name": "age",
          "type": "string"
        },
        {
          "name": "gender",
          "type": "string"
        },
        {
          "name": "specialization",
          "type": "string"
        }
      ],
      "name": "executeDoctorSignup",
      "outputs": [],
      "payable": true,
      "stateMutability": "payable",
      "type": "function"
    },
    {
      "constant": false,
      "inputs": [
        {
          "name": "name",
          "type": "string"
        },
        {
          "name": "email",
          "type": "string"
        },
        {
          "name": "role",
          "type": "string"
        }
      ],
      "name": "logUserSignIn",
      "outputs": [],
      "payable": true,
      "stateMutability": "payable",
      "type": "function"
    }
  ],
  "bytecode": "0x608060405234801561001057600080fd5b506126d5806100206000396000f3fe608060405260043610610072576000357c010000000000000000000000000000000000000000000000000000000090048063020d7cb0146100775780633bed60b4146104255780636efb1b84146105e4578063728deff81461087b57806393119a8314610b925780639ff0e46314610e95575b600080fd5b610423600480360360c081101561008d57600080fd5b81019080803590602001906401000000008111156100aa57600080fd5b8201836020820111156100bc57600080fd5b803590602001918460018302840111640100000000831117156100de57600080fd5b91908080601f016020809104026020016040519081016040528093929190818152602001838380828437600081840152601f19601f8201169050808301925050505050505091929192908035906020019064010000000081111561014157600080fd5b82018360208201111561015357600080fd5b8035906020019184600183028401116401000000008311171561017557600080fd5b91908080601f016020809104026020016040519081016040528093929190818152602001838380828437600081840152601f19601f820116905080830192505050505050509192919290803590602001906401000000008111156101d857600080fd5b8201836020820111156101ea57600080fd5b8035906020019184600183028401116401000000008311171561020c57600080fd5b91908080601f016020809104026020016040519081016040528093929190818152602001838380828437600081840152601f19601f8201169050808301925050505050505091929192908035906020019064010000000081111561026f57600080fd5b82018360208201111561028157600080fd5b803590602001918460018302840111640100000000831117156102a357600080fd5b91908080601f016020809104026020016040519081016040528093929190818152602001838380828437600081840152601f19601f8201169050808301925050505050505091929192908035906020019064010000000081111561030657600080fd5b82018360208201111561031857600080fd5b8035906020019184600183028401116401000000008311171561033a57600080fd5b91908080601f016020809104026020016040519081016040528093929190818152602001838380828437600081840152601f19601f8201169050808301925050505050505091929192908035906020019064010000000081111561039d57600080fd5b8201836020820111156103af57600080fd5b803590602001918460018302840111640100000000831117156103d157600080fd5b91908080601f016020809104026020016040519081016040528093929190818152602001838380828437600081840152601f19601f82011690508083019250505050505050919291929050505061107e565b005b34801561043157600080fd5b5061045e6004803603602081101561044857600080fd5b81019080803590602001909291905050506114f7565b604051808573ffffffffffffffffffffffffffffffffffffffff1673ffffffffffffffffffffffffffffffffffffffff168152602001806020018060200180602001848103845287818151815260200191508051906020019080838360005b838110156104d85780820151818401526020810190506104bd565b50505050905090810190601f1680156105055780820380516001836020036101000a031916815260200191505b50848103835286818151815260200191508051906020019080838360005b8381101561053e578082015181840152602081019050610523565b50505050905090810190601f16801561056b5780820380516001836020036101000a031916815260200191505b50848103825285818151815260200191508051906020019080838360005b838110156105a4578082015181840152602081019050610589565b50505050905090810190601f1680156105d15780820380516001836020036101000a031916815260200191505b5097505050505050505060405180910390f35b3480156105f057600080fd5b5061061d6004803603602081101561060757600080fd5b810190808035906020019092919050505061171e565b604051808773ffffffffffffffffffffffffffffffffffffffff1673ffffffffffffffffffffffffffffffffffffffff168152602001806020018060200180602001806020018060200186810386528b818151815260200191508051906020019080838360005b8381101561069f578082015181840152602081019050610684565b50505050905090810190601f1680156106cc5780820380516001836020036101000a031916815260200191505b5086810385528a818151815260200191508051906020019080838360005b838110156107055780820151818401526020810190506106ea565b50505050905090810190601f1680156107325780820380516001836020036101000a031916815260200191505b50868103845289818151815260200191508051906020019080838360005b8381101561076b578082015181840152602081019050610750565b50505050905090810190601f1680156107985780820380516001836020036101000a031916815260200191505b50868103835288818151815260200191508051906020019080838360005b838110156107d15780820151818401526020810190506107b6565b50505050905090810190601f1680156107fe5780820380516001836020036101000a031916815260200191505b50868103825287818151815260200191508051906020019080838360005b8381101561083757808201518184015260208101905061081c565b50505050905090810190601f1680156108645780820380516001836020036101000a031916815260200191505b509b50505050505050505050505060405180910390f35b610b90600480360360a081101561089157600080fd5b81019080803590602001906401000000008111156108ae57600080fd5b8201836020820111156108c057600080fd5b803590602001918460018302840111640100000000831117156108e257600080fd5b91908080601f016020809104026020016040519081016040528093929190818152602001838380828437600081840152601f19601f8201169050808301925050505050505091929192908035906020019064010000000081111561094557600080fd5b82018360208201111561095757600080fd5b8035906020019184600183028401116401000000008311171561097957600080fd5b91908080601f016020809104026020016040519081016040528093929190818152602001838380828437600081840152601f19601f820116905080830192505050505050509192919290803590602001906401000000008111156109dc57600080fd5b8201836020820111156109ee57600080fd5b80359060200191846001830284011164010000000083111715610a1057600080fd5b91908080601f016020809104026020016040519081016040528093929190818152602001838380828437600081840152601f19601f82011690508083019250505050505050919291929080359060200190640100000000811115610a7357600080fd5b820183602082011115610a8557600080fd5b80359060200191846001830284011164010000000083111715610aa757600080fd5b91908080601f016020809104026020016040519081016040528093929190818152602001838380828437600081840152601f19601f82011690508083019250505050505050919291929080359060200190640100000000811115610b0a57600080fd5b820183602082011115610b1c57600080fd5b80359060200191846001830284011164010000000083111715610b3e57600080fd5b91908080601f016020809104026020016040519081016040528093929190818152602001838380828437600081840152601f19601f820116905080830192505050505050509192919290505050611a81565b005b348015610b9e57600080fd5b50610bcb60048036036020811015610bb557600080fd5b8101908080359060200190929190505050611e66565b604051808873ffffffffffffffffffffffffffffffffffffffff1673ffffffffffffffffffffffffffffffffffffffff16815260200180602001806020018060200180602001806020018060200187810387528d818151815260200191508051906020019080838360005b83811015610c51578082015181840152602081019050610c36565b50505050905090810190601f168015610c7e5780820380516001836020036101000a031916815260200191505b5087810386528c818151815260200191508051906020019080838360005b83811015610cb7578082015181840152602081019050610c9c565b50505050905090810190601f168015610ce45780820380516001836020036101000a031916815260200191505b5087810385528b818151815260200191508051906020019080838360005b83811015610d1d578082015181840152602081019050610d02565b50505050905090810190601f168015610d4a5780820380516001836020036101000a031916815260200191505b5087810384528a818151815260200191508051906020019080838360005b83811015610d83578082015181840152602081019050610d68565b50505050905090810190601f168015610db05780820380516001836020036101000a031916815260200191505b50878103835289818151815260200191508051906020019080838360005b83811015610de9578082015181840152602081019050610dce565b50505050905090810190601f168015610e165780820380516001836020036101000a031916815260200191505b50878103825288818151815260200191508051906020019080838360005b83811015610e4f578082015181840152602081019050610e34565b50505050905090810190601f168015610e7c5780820380516001836020036101000a031916815260200191505b509d505050505050505050505050505060405180910390f35b61107c60048036036060811015610eab57600080fd5b8101908080359060200190640100000000811115610ec857600080fd5b820183602082011115610eda57600080fd5b80359060200191846001830284011164010000000083111715610efc57600080fd5b91908080601f016020809104026020016040519081016040528093929190818152602001838380828437600081840152601f19601f82011690508083019250505050505050919291929080359060200190640100000000811115610f5f57600080fd5b820183602082011115610f7157600080fd5b80359060200191846001830284011164010000000083111715610f9357600080fd5b91908080601f016020809104026020016040519081016040528093929190818152602001838380828437600081840152601f19601f82011690508083019250505050505050919291929080359060200190640100000000811115610ff657600080fd5b82018360208201111561100857600080fd5b8035906020019184600183028401116401000000008311171561102a57600080fd5b91908080601f016020809104026020016040519081016040528093929190818152602001838380828437600081840152601f19601f820116905080830192505050505050509192919290505050612267565b005b611086612524565b33816000019073ffffffffffffffffffffffffffffffffffffffff16908173ffffffffffffffffffffffffffffffffffffffff1681525050868160200181905250858160400181905250848160600181905250838160800181905250828160a00181905250818160c001819052506000819080600181540180825580915050906001820390600052602060002090600702016000909192909190915060008201518160000160006101000a81548173ffffffffffffffffffffffffffffffffffffffff021916908373ffffffffffffffffffffffffffffffffffffffff1602179055506020820151816001019080519060200190611185929190612578565b5060408201518160020190805190602001906111a2929190612578565b5060608201518160030190805190602001906111bf929190612578565b5060808201518160040190805190602001906111dc929190612578565b5060a08201518160050190805190602001906111f9929190612578565b5060c0820151816006019080519060200190611216929190612578565b505050503373ffffffffffffffffffffffffffffffffffffffff167f6067fe408182cc6d0cf8972f35dac2e8cede0b7f00b559e49434225cd1b9d7d48888888888886040518080602001806020018060200180602001806020018060200187810387528d818151815260200191508051906020019080838360005b838110156112ac578082015181840152602081019050611291565b50505050905090810190601f1680156112d95780820380516001836020036101000a031916815260200191505b5087810386528c818151815260200191508051906020019080838360005b838110156113125780820151818401526020810190506112f7565b50505050905090810190601f16801561133f5780820380516001836020036101000a031916815260200191505b5087810385528b818151815260200191508051906020019080838360005b8381101561137857808201518184015260208101905061135d565b50505050905090810190601f1680156113a55780820380516001836020036101000a031916815260200191505b5087810384528a818151815260200191508051906020019080838360005b838110156113de5780820151818401526020810190506113c3565b50505050905090810190601f16801561140b5780820380516001836020036101000a031916815260200191505b50878103835289818151815260200191508051906020019080838360005b83811015611444578082015181840152602081019050611429565b50505050905090810190601f1680156114715780820380516001836020036101000a031916815260200191505b50878103825288818151815260200191508051906020019080838360005b838110156114aa57808201518184015260208101905061148f565b50505050905090810190601f1680156114d75780820380516001836020036101000a031916815260200191505b509c5050505050505050505050505060405180910390a250505050505050565b60028181548110151561150657fe5b90600052602060002090600402016000915090508060000160009054906101000a900473ffffffffffffffffffffffffffffffffffffffff1690806001018054600181600116156101000203166002900480601f0160208091040260200160405190810160405280929190818152602001828054600181600116156101000203166002900480156115d85780601f106115ad576101008083540402835291602001916115d8565b820191906000526020600020905b8154815290600101906020018083116115bb57829003601f168201915b505050505090806002018054600181600116156101000203166002900480601f0160208091040260200160405190810160405280929190818152602001828054600181600116156101000203166002900480156116765780601f1061164b57610100808354040283529160200191611676565b820191906000526020600020905b81548152906001019060200180831161165957829003601f168201915b505050505090806003018054600181600116156101000203166002900480601f0160208091040260200160405190810160405280929190818152602001828054600181600116156101000203166002900480156117145780601f106116e957610100808354040283529160200191611714565b820191906000526020600020905b8154815290600101906020018083116116f757829003601f168201915b5050505050905084565b60018181548110151561172d57fe5b90600052602060002090600602016000915090508060000160009054906101000a900473ffffffffffffffffffffffffffffffffffffffff1690806001018054600181600116156101000203166002900480601f0160208091040260200160405190810160405280929190818152602001828054600181600116156101000203166002900480156117ff5780601f106117d4576101008083540402835291602001916117ff565b820191906000526020600020905b8154815290600101906020018083116117e257829003601f168201915b505050505090806002018054600181600116156101000203166002900480601f01602080910402602001604051908101604052809291908181526020018280546001816001161561010002031660029004801561189d5780601f106118725761010080835404028352916020019161189d565b820191906000526020600020905b81548152906001019060200180831161188057829003601f168201915b505050505090806003018054600181600116156101000203166002900480601f01602080910402602001604051908101604052809291908181526020018280546001816001161561010002031660029004801561193b5780601f106119105761010080835404028352916020019161193b565b820191906000526020600020905b81548152906001019060200180831161191e57829003601f168201915b505050505090806004018054600181600116156101000203166002900480601f0160208091040260200160405190810160405280929190818152602001828054600181600116156101000203166002900480156119d95780601f106119ae576101008083540402835291602001916119d9565b820191906000526020600020905b8154815290600101906020018083116119bc57829003601f168201915b505050505090806005018054600181600116156101000203166002900480601f016020809104026020016040519081016040528092919081815260200182805460018160011615610100020316600290048015611a775780601f10611a4c57610100808354040283529160200191611a77565b820191906000526020600020905b815481529060010190602001808311611a5a57829003601f168201915b5050505050905086565b611a896125f8565b33816000019073ffffffffffffffffffffffffffffffffffffffff16908173ffffffffffffffffffffffffffffffffffffffff1681525050858160200181905250848160400181905250838160600181905250828160800181905250818160a001819052506001819080600181540180825580915050906001820390600052602060002090600602016000909192909190915060008201518160000160006101000a81548173ffffffffffffffffffffffffffffffffffffffff021916908373ffffffffffffffffffffffffffffffffffffffff1602179055506020820151816001019080519060200190611b7f929190612578565b506040820151816002019080519060200190611b9c929190612578565b506060820151816003019080519060200190611bb9929190612578565b506080820151816004019080519060200190611bd6929190612578565b5060a0820151816005019080519060200190611bf3929190612578565b505050503373ffffffffffffffffffffffffffffffffffffffff167fa568507d74204a336c80a53967a7ee5a4ba4493ceff92aa5d2dad018a33b612f878787878760405180806020018060200180602001806020018060200186810386528b818151815260200191508051906020019080838360005b83811015611c84578082015181840152602081019050611c69565b50505050905090810190601f168015611cb15780820380516001836020036101000a031916815260200191505b5086810385528a818151815260200191508051906020019080838360005b83811015611cea578082015181840152602081019050611ccf565b50505050905090810190601f168015611d175780820380516001836020036101000a031916815260200191505b50868103845289818151815260200191508051906020019080838360005b83811015611d50578082015181840152602081019050611d35565b50505050905090810190601f168015611d7d5780820380516001836020036101000a031916815260200191505b50868103835288818151815260200191508051906020019080838360005b83811015611db6578082015181840152602081019050611d9b565b50505050905090810190601f168015611de35780820380516001836020036101000a031916815260200191505b50868103825287818151815260200191508051906020019080838360005b83811015611e1c578082015181840152602081019050611e01565b50505050905090810190601f168015611e495780820380516001836020036101000a031916815260200191505b509a505050505050505050505060405180910390a2505050505050565b600081815481101515611e7557fe5b90600052602060002090600702016000915090508060000160009054906101000a900473ffffffffffffffffffffffffffffffffffffffff1690806001018054600181600116156101000203166002900480601f016020809104026020016040519081016040528092919081815260200182805460018160011615610100020316600290048015611f475780601f10611f1c57610100808354040283529160200191611f47565b820191906000526020600020905b815481529060010190602001808311611f2a57829003601f168201915b505050505090806002018054600181600116156101000203166002900480601f016020809104026020016040519081016040528092919081815260200182805460018160011615610100020316600290048015611fe55780601f10611fba57610100808354040283529160200191611fe5565b820191906000526020600020905b815481529060010190602001808311611fc857829003601f168201915b505050505090806003018054600181600116156101000203166002900480601f0160208091040260200160405190810160405280929190818152602001828054600181600116156101000203166002900480156120835780601f1061205857610100808354040283529160200191612083565b820191906000526020600020905b81548152906001019060200180831161206657829003601f168201915b505050505090806004018054600181600116156101000203166002900480601f0160208091040260200160405190810160405280929190818152602001828054600181600116156101000203166002900480156121215780601f106120f657610100808354040283529160200191612121565b820191906000526020600020905b81548152906001019060200180831161210457829003601f168201915b505050505090806005018054600181600116156101000203166002900480601f0160208091040260200160405190810160405280929190818152602001828054600181600116156101000203166002900480156121bf5780601f10612194576101008083540402835291602001916121bf565b820191906000526020600020905b8154815290600101906020018083116121a257829003601f168201915b505050505090806006018054600181600116156101000203166002900480601f01602080910402602001604051908101604052809291908181526020018280546001816001161561010002031660029004801561225d5780601f106122325761010080835404028352916020019161225d565b820191906000526020600020905b81548152906001019060200180831161224057829003601f168201915b5050505050905087565b61226f612645565b33816000019073ffffffffffffffffffffffffffffffffffffffff16908173ffffffffffffffffffffffffffffffffffffffff16815250508381602001819052508281604001819052508181606001819052506002819080600181540180825580915050906001820390600052602060002090600402016000909192909190915060008201518160000160006101000a81548173ffffffffffffffffffffffffffffffffffffffff021916908373ffffffffffffffffffffffffffffffffffffffff1602179055506020820151816001019080519060200190612353929190612578565b506040820151816002019080519060200190612370929190612578565b50606082015181600301908051906020019061238d929190612578565b505050503373ffffffffffffffffffffffffffffffffffffffff167f2529b09b76d66fa423986f335bae2e326f339555f6d95057e384bb9a360357f885858560405180806020018060200180602001848103845287818151815260200191508051906020019080838360005b838110156124145780820151818401526020810190506123f9565b50505050905090810190601f1680156124415780820380516001836020036101000a031916815260200191505b50848103835286818151815260200191508051906020019080838360005b8381101561247a57808201518184015260208101905061245f565b50505050905090810190601f1680156124a75780820380516001836020036101000a031916815260200191505b50848103825285818151815260200191508051906020019080838360005b838110156124e05780820151818401526020810190506124c5565b50505050905090810190601f16801561250d5780820380516001836020036101000a031916815260200191505b50965050505050505060405180910390a250505050565b60e060405190810160405280600073ffffffffffffffffffffffffffffffffffffffff1681526020016060815260200160608152602001606081526020016060815260200160608152602001606081525090565b828054600181600116156101000203166002900490600052602060002090601f016020900481019282601f106125b957805160ff19168380011785556125e7565b828001600101855582156125e7579182015b828111156125e65782518255916020019190600101906125cb565b5b5090506125f49190612684565b5090565b60c060405190810160405280600073ffffffffffffffffffffffffffffffffffffffff16815260200160608152602001606081526020016060815260200160608152602001606081525090565b608060405190810160405280600073ffffffffffffffffffffffffffffffffffffffff1681526020016060815260200160608152602001606081525090565b6126a691905b808211156126a257600081600090555060010161268a565b5090565b9056fea165627a7a72305820d0779ccff739efbabe29c32098143d1f7fc86fc4baba8bb9490f4c17d699f92f0029",
  "source": "// SPDX-License-Identifier: MIT\r\npragma solidity >=0.4.22 <0.9.0;\r\n\r\ncontract Registry {\r\n    // Struct to represent patient details\r\n    struct Patient {\r\n        address patientAddress;\r\n        string name;\r\n        string email;\r\n        string age;\r\n        string gender;\r\n        string role;\r\n        string cnss;\r\n    }\r\n\r\n    // Struct to represent doctor details\r\n    struct Doctor {\r\n        address doctorAddress;\r\n        string name;\r\n        string email;\r\n        string age;\r\n        string gender;\r\n        string specialization;\r\n    }\r\n    \r\n    // Array to store sign-in events\r\n    struct SignInEvent {\r\n        address userAddress;\r\n        string name;\r\n        string email;\r\n        string role;\r\n    }\r\n\r\n    // Arrays to store patient and doctor details\r\n    Patient[] public patients;\r\n    Doctor[] public doctors;\r\n    SignInEvent[] public signInEvents;\r\n\r\n\r\n    // Event emitted when a patient signs up\r\n    event PatientSignedUp(address indexed patientAddress, string name, string email, string age, string gender, string role, string cnss);\r\n\r\n    // Event emitted when a doctor signs up\r\n    event DoctorSignedUp(address indexed doctorAddress, string name, string email,string age, string gender, string specialization);\r\n\r\n        // Event emitted when a user signs in\r\n    event UserSignedIn(address indexed userAddress, string name, string email, string role);\r\n\r\n\r\n\r\n\r\n    // Function to allow patients to sign up\r\n    function executePatientSignup(string memory name, string memory email, string memory age, string memory gender, string memory role, string memory cnss) public payable {\r\n\r\n        // Create a new patient instance\r\n        Patient memory newPatient;\r\n        newPatient.patientAddress = msg.sender;\r\n        newPatient.name = name;\r\n        newPatient.email = email;\r\n        newPatient.age = age;\r\n        newPatient.gender = gender;\r\n        newPatient.role = role;\r\n        newPatient.cnss = cnss;\r\n\r\n        // Add the new patient to the array\r\n        patients.push(newPatient);\r\n\r\n        // Emit event\r\n        emit PatientSignedUp(msg.sender, name, email, age, gender, role, cnss);\r\n    }\r\n\r\n    // Function to allow doctors to sign up\r\n    function executeDoctorSignup(string memory name, string memory email,string memory age, string memory gender, string memory specialization) public payable {\r\n\r\n        // Create a new doctor instance\r\n        Doctor memory newDoctor;\r\n        newDoctor.doctorAddress = msg.sender;\r\n        newDoctor.name = name;\r\n        newDoctor.email = email;\r\n        newDoctor.age = age;\r\n        newDoctor.gender = gender;\r\n        newDoctor.specialization = specialization;\r\n\r\n        // Add the new doctor to the array\r\n        doctors.push(newDoctor);\r\n\r\n        // Emit event\r\n        emit DoctorSignedUp(msg.sender, name, email, age, gender, specialization);\r\n    }\r\n\r\n     // Function to log user sign-in\r\n    function logUserSignIn(string memory name, string memory email, string memory role) public payable {\r\n\r\n\r\n    // Create a new sign-in event\r\n    SignInEvent memory newSignInEvent;\r\n    newSignInEvent.userAddress = msg.sender;\r\n    newSignInEvent.name = name;\r\n    newSignInEvent.email = email;\r\n    newSignInEvent.role = role;\r\n\r\n    // Add the new sign-in event to the array\r\n    signInEvents.push(newSignInEvent);\r\n\r\n    // Emit event\r\n    emit UserSignedIn(msg.sender, name, email, role);\r\n\r\n}\r\n\r\n}\r\n",
  "sourcePath": "C:\\Users\\USER\\Downloads\\p2m_-main (1)\\p2m_-main\\contracts\\Registry.sol",
  "compiler": {
    "name": "solc",
    "version": "0.5.1+commit.c8a2cb62.Emscripten.clang"
  },
  "schemaVersion": "3.4.16",
  "updatedAt": "2024-04-27T15:59:56.732Z",
  "networkType": "ethereum",
  "devdoc": {
    "methods": {}
  },
  "userdoc": {
    "methods": {}
  }
}